:020000040000fa
:080000000002040000000000f2
:020000040000fa
:04000800c80200002a
:020000040000fa
:04000c00c802000026
:020000040000fa
:04001000c802000022
:020000040000fa
:04001400c80200001e
:020000040000fa
:04001800c80200001a
:020000040000fa
:04001c00c802000016
:020000040000fa
:04002000c802000012
:020000040000fa
:04002400c80200000e
:020000040000fa
:04002800c2140000fe
:020000040000fa
:04002c00c802000006
:020000040000fa
:04003000c802000002
:020000040000fa
:04003400c8020000fe
:020000040000fa
:04003800c8020000fa
:020000040000fa
:04003c00c8020000f6
:020000040000fa
:04004000c8020000f2
:020000040000fa
:04004400c8020000ee
:020000040000fa
:04004800c8020000ea
:020000040000fa
:04004c00c8020000e6
:020000040000fa
:04005000c8020000e2
:020000040000fa
:04005400c8020000de
:020000040000fa
:04005800c8020000da
:020000040000fa
:04005c00c8020000d6
:020000040000fa
:04006000c8020000d2
:020000040000fa
:04006400c8020000ce
:020000040000fa
:04006800c8020000ca
:020000040000fa
:04006c00c8020000c6
:020000040000fa
:04007000c8020000c2
:020000040000fa
:04007400c8020000be
:020000040000fa
:04007800241300004d
:020000040000fa
:04007c00c8020000b6
:020000040000fa
:04008000c8020000b2
:020000040000fa
:04008400c8020000ae
:020000040000fa
:04008800c8020000aa
:020000040000fa
:04008c00c8020000a6
:020000040000fa
:04009000c8020000a2
:020000040000fa
:04009400c80200009e
:020000040000fa
:04009800c80200009a
:020000040000fa
:04009c00c802000096
:020000040000fa
:0400a000c802000092
:020000040000fa
:0400a400c80200008e
:020000040000fa
:0400a800c80200008a
:020000040000fa
:0400ac00c802000086
:020000040000fa
:0400b000c802000082
:020000040000fa
:0400b400c80200007e
:020000040000fa
:0400b800c80200007a
:020000040000fa
:0400bc00c802000076
:020000040000fa
:0400c000c802000072
:020000040000fa
:0400c400c80200006e
:020000040000fa
:0400c800c80200006a
:020000040000fa
:0400cc00c802000066
:020000040000fa
:0400d000c802000062
:020000040000fa
:0400d400c80200005e
:020000040000fa
:0400d800c80200005a
:020000040000fa
:0400dc00c802000056
:020000040000fa
:0400e000c802000052
:020000040000fa
:0400e400c80200004e
:020000040000fa
:0400e800c80200004a
:020000040000fa
:0400ec00c802000046
:020000040000fa
:0400f000c802000042
:020000040000fa
:0400f400c80200003e
:020000040000fa
:0400f800c80200003a
:020000040000fa
:0400fc00c802000036
:020000040000fa
:04010000c802000031
:020000040000fa
:04010400c80200002d
:020000040000fa
:04010800c802000029
:020000040000fa
:04010c00c802000025
:020000040000fa
:04011000c802000021
:020000040000fa
:04011400c80200001d
:020000040000fa
:04011800c802000019
:020000040000fa
:04011c00c802000015
:020000040000fa
:04012000c802000011
:020000040000fa
:04012400c80200000d
:020000040000fa
:04012800c802000009
:020000040000fa
:04012c00c802000005
:020000040000fa
:04013000c802000001
:020000040000fa
:04013400c8020000fd
:020000040000fa
:04013800c8020000f9
:020000040000fa
:04013c00c8020000f5
:020000040000fa
:04014000c8020000f1
:020000040000fa
:04014400c8020000ed
:020000040000fa
:04014800c8020000e9
:020000040000fa
:04014c00c8020000e5
:020000040000fa
:04015000c8020000e1
:020000040000fa
:04015400c8020000dd
:020000040000fa
:04015800c8020000d9
:020000040000fa
:04015c00c8020000d5
:020000040000fa
:04016000c8020000d1
:020000040000fa
:04016400c8020000cd
:020000040000fa
:04016800c8020000c9
:020000040000fa
:04020800c802000028
:020000040000fa
:04020c00c802000024
:020000040000fa
:04021000c802000020
:020000040000fa
:04021400c80200001c
:020000040000fa
:04021800c802000018
:020000040000fa
:04021c00c802000014
:020000040000fa
:04022000c802000010
:020000040000fa
:04022400c80200000c
:020000040000fa
:04022800c802000008
:020000040000fa
:04022c00c802000004
:020000040000fa
:04023000c802000000
:020000040000fa
:04023400c8020000fc
:020000040000fa
:04023800c8020000f8
:020000040000fa
:04023c00c8020000f4
:020000040000fa
:04024000c8020000f0
:020000040000fa
:04024400c8020000ec
:020000040000fa
:04024800c8020000e8
:020000040000fa
:04024c00c8020000e4
:020000040000fa
:04025000c8020000e0
:020000040000fa
:04025400c8020000dc
:020000040000fa
:04025800c8020000d8
:020000040000fa
:04025c00c8020000d4
:020000040000fa
:04026000c8020000d0
:020000040000fa
:04026400c8020000cc
:020000040000fa
:04026800c8020000c8
:020000040000fa
:04026c00c8020000c4
:020000040000fa
:04027000c8020000c0
:020000040000fa
:04027400c8020000bc
:020000040000fa
:04027800c8020000b8
:020000040000fa
:04027c00c8020000b4
:020000040000fa
:04028000c8020000b0
:020000040000fa
:04028400c8020000ac
:020000040000fa
:04028800c8020000a8
:020000040000fa
:04028c00c8020000a4
:020000040000fa
:04029000c8020000a0
:020000040000fa
:04029400c80200009c
:020000040000fa
:04029800c802000098
:020000040000fa
:04029c00c802000094
:020000040000fa
:0402a000c802000090
:020000040000fa
:0402a400c80200008c
:020000040000fa
:0402a800c802000088
:020000040000fa
:0402ac00c802000084
:020000040000fa
:0402b000c802000080
:020000040000fa
:0402b400c80200007c
:020000040000fa
:0402b800c802000078
:020000040000fa
:0402bc00c802000074
:020000040000fa
:0402c000c802000070
:020000040000fa
:0402c400c80200006c
:020000040000fa
:0402c800c802000068
:020000040000fa
:0402cc00c802000064
:020000040000fa
:0402d000c802000060
:020000040000fa
:0402d400c80200005c
:020000040000fa
:0402d800c802000058
:020000040000fa
:0402dc00c802000054
:020000040000fa
:0402e000c802000050
:020000040000fa
:0402e400c80200004c
:020000040000fa
:0402e800c802000048
:020000040000fa
:0402ec00c802000044
:020000040000fa
:0402f000c802000040
:020000040000fa
:0402f400c80200003c
:020000040000fa
:0402f800c802000038
:020000040000fa
:0402fc00c802000034
:020000040000fa
:04030000c80200002f
:020000040000fa
:04030400c80200002b
:020000040000fa
:04030800c802000027
:020000040000fa
:04030c00c802000023
:020000040000fa
:04031000c80200001f
:020000040000fa
:04031400c80200001b
:020000040000fa
:04031800c802000017
:020000040000fa
:04031c00c802000013
:020000040000fa
:04032000c80200000f
:020000040000fa
:04032400c80200000b
:020000040000fa
:04032800c802000007
:020000040000fa
:04032c00c802000003
:020000040000fa
:04033000c8020000ff
:020000040000fa
:04033400c8020000fb
:020000040000fa
:04033800c8020000f7
:020000040000fa
:04033c00c8020000f3
:020000040000fa
:04034000c8020000ef
:020000040000fa
:04034400c8020000eb
:020000040000fa
:04034800c8020000e7
:020000040000fa
:04034c00c8020000e3
:020000040000fa
:04035000c8020000df
:020000040000fa
:04035400c8020000db
:020000040000fa
:04035800c8020000d7
:020000040000fa
:04035c00c8020000d3
:020000040000fa
:04036000c8020000cf
:020000040000fa
:04036400c8020000cb
:020000040000fa
:04036800c8020000c7
:020000040000fa
:100400008f8a20000eff20000e01880000000000ef
:10041000000020000000e000020032000001200087
:1004200020028800140007005b0007000000e000c5
:1004300003003a00c07121000100200002003700d3
:100440000000200001002000810f70000100320038
:1004500014000700000020000000e000020032004d
:100460000000020000000000100d0200000000006b
:100470000040da000000fe004440a900a005200072
:100480000000e0000300320000002000a00188000e
:100490004440a800000006008a1f78008b1f7800e7
:1004a0000000060091018800800478000000eb0045
:1004b0001a003700e284440032a0b4009905ba0063
:1004c000e284440032a0b4009906ba00e2844400f9
:1004d00032a0b4000006eb00476fde00fd07b2005b
:1004e000636ce10003003a00ebff07000000eb0043
:1004f0000a003700606ce10004003a00005deb0088
:100500008b05e900fdff3e00040037006168e10053
:10051000010032000086eb000b00070019c7ba008b
:100520001905ba000e04e00003003a000a00e000da
:10053000e0ff3a0000000600fe07b2009e018800be
:100540008a047800f5ff3700395dba008b05e900b1
:100550000c003200295dba008b05e900080032006a
:100560000c00e00003003a00e284440032a0b40032
:10057000f5ff370019ddba008b05e900faff3a00f4
:100580008904e800e184440032a0b40000000600c1
:100590000040da000000fe000000050003f0a200a9
:1005a000889fbe008a9fbe008c1f7800fe00070057
:1005b000050133006450e1004f0032006420e10087
:1005c0005200320003826c0007003b000905d00096
:1005d0000306d000820f54000c065d0002003900b3
:1005e00002003200890178000306780085825500f8
:1005f00004003d000003fd008103fd008502ea00c8
:100600008b854200840f720002003b0060001000e6
:10061000e08018006011b8000005eb007a28e100c6
:100620000a00390006007800c75ddd00f707b20058
:10063000878075002d003700828171000a017800e3
:10064000610560008180d1000080d3008502e9004f
:10065000f9ff3b00060440008784480002003b008d
:1006600060041400e0841c000988a3000700320025
:100670008a81710082817100610164008904d10066
:100680000884d3008b05e800170037000978a30021
:1006900013003a000b00e000130034008b05e90062
:1006a0000804440089844c000a4474000978a300bb
:1006b0000d003a000b00e000070034008b05e90054
:1006c0000804440089844c0001003a000b0020001b
:1006d0000978a300f7ff32000001eb0002003700a9
:1006e000828171000a017800740007000cf0a700f5
:1006f00001f0a000bd0037006420e10002003a00d4
:10070000838f6c00bd0033000801be000200be00f4
:10071000b6003700889fbe008a9fbe008c1f7800fd
:10072000a1000700a800330003866c006450e100bc
:100730002e0032006420e100330032006150e100fd
:100740002f0032006120e100310032008585550024
:10075000eb07b00009002000080420000500370066
:100760000804440089844c000a0031000603430059
:1007700087834b000001530081815b00f8ff330049
:100780000203be000800a0000804440089844c0055
:10079000f6ff3900c639dd00830173000100320025
:1007a000130020008904d1000884d3000998a30015
:1007b000050032000800a7000300a0008904d10052
:1007c0000884d3008b05e8008904d1000884d30095
:1007d0000001eb000281d2003800070001f0a10007
:1007e0000cf0a70001f0a000800037006420e100b9
:1007f000820032000801be000200be00f7ff370091
:100800006120e1007d0032006000b800f3ff370096
:100810000000200001f82700f0ff3700140020003e
:10082000510337000001be004a0007000470a70012
:1008300003f0a1006509b100160032000d0035007b
:100840006828e10006003500f0ff2f00f1ff2700c7
:100850000300e00013003b00010028000000050039
:1008600000004000818048008502e900fcff3a005a
:1008700008003700f88f420002003c008000eb00c7
:10088000000005008100d1000080d3008502e8004f
:10089000fcff3a000300e00002003b006000100093
:1008a000e0801800000006004f89de008201780019
:1008b0004a0337006011b800580337008100200058
:1008c000618055000b003d000b00200061fe2f00f1
:1008d0000100e1001d0034008281710061016400ab
:1008e0008904d1000884d3000000e800faff3a0030
:1008f00071002000610064000300700002006000cd
:100900000900320061044400e0844c000988a5001d
:10091000050032008b05e8006808e10002003a009b
:100920008904d1000884d300f20f20000258e100ae
:1009300005003d00c75ddd00f907b2008980750044
:1009400008007800000006000bf827008b007800f4
:1009500000000500c70ade00f107b200f50fb20083
:1009600008003200e1cf4200020032000170a00016
:1009700024000500810f700001003200040805000a
:1009800044000500810f700002003a0014000500c9
:100990008502e9000000400081c04800fcff3b00e8
:1009a0000170a000240005000004be00e9ff07005c
:1009b0000003be000405be000200be00e5ff070004
:1009c000844f7500000006000200be006450e10084
:1009d000050036006420e100020036000968a3002b
:1009e00001003a000800be000160a0004f06780038
:1009f0004f05be004f04be0000000600f0ff2f00b0
:100a0000f1ff2700f9ff3700889fbe008a9fbe00d4
:100a10008c1f7800e4ff0700ebff330003866c00b7
:100a20006450e100240032006420e100270032001d
:100a30006150e100220032006120e100210032001b
:100a40008b854200eb07b1000134b800003ab800d2
:100a50000804420089844a00013ab8000030b80016
:100a60008880400009014a00040033000000400073
:100a700081804800020149008b05e900c909dd00b9
:100a8000830170000100320013002000c814de0052
:100a90004814dd004709de001200b200c808de007d
:100aa0000884700085ff070001f0a1000cf0a7008a
:100ab00001f0a000cdff37006120e100cfff320040
:100ac0000801be000200be00f7ff37006150e100e0
:100ad000fcff3a00c9ff37000c00fa00889fbe00f7
:100ae0008a9fbe008c9fbe00afff07000206be00bb
:100af000840578000200be00020020007302070097
:100b000005003a008b02b300120020006f020700bc
:100b100001003a00f8856d000c01be00c600070018
:100b20000800be009b0032000b08a3009e003a00a4
:100b30000df0a7000be0a00009f0a7000bf0a0004b
:100b400009f0a1000801be00bb0007000bf0a600e1
:100b50009500320001003c000bd0a0008acf750048
:100b6000b20033006000b8006250e1009900390023
:100b7000a1003e000b28a300a2003a000bf8a3003e
:100b8000060032000b58a300a70032000801be0087
:100b9000a90007000800be00940032000800be0053
:100ba000db0107000004be00050578000bf0a7007c
:100bb0000b30a6000bf0a1005b079800324f20001d
:100bc00053f3230015ff070005003d000800be0099
:100bd00012002000c00207000004be000a05e90060
:100be0004a0798006150b9002fff0700008fbe0030
:100bf0000c01be0084ff07000aff070030079800c1
:100c00000100e00002003d0060001000e0801800dc
:100c1000f2ff2700820f5000e08f580064003e0072
:100c20000c00be00fffe070020079800f20720001e
:100c3000820f5000e08f580005003c0012f82f0092
:100c4000f3ff2f00820f5000838f580009003d00f2
:100c50000a00e0000300320001003c000201ea004b
:100c6000020578006000b800200798003a07980055
:100c7000190037003e0090006100b9000aff07002c
:100c8000809fbe000c00be004109dd004811de005f
:100c90007208b1000d0207000005be001e01be0073
:100ca00059ff07004f01be003cfe0700809fbe00b9
:100cb0000c00be000a01be0038fe07001e01be0087
:100cc00051ff07004f01be0035fe070082212700bb
:100cd00013f323004cff07000005be002e00900018
:100ce0006100b900f0fe070001f0a2000c01be0097
:100cf0002bfe07000006be000800be009802070099
:100d00000c01be0040ff07000a01be0024fe0700e0
:100d1000809fbe004a0007002e0590000af0a70041
:100d20000a05ea00050037000800be000801be0001
:100d300035ff07000004be000c00be000801be0025
:100d40000a00a70030ff07000006be000a05d10018
:100d5000f5ff3a005e01900002e0a60003003700b4
:100d60000001be00360007006afe07000004be0056
:100d70004f00be00730107000801be0022ff0700fc
:100d80003e01900054020700de0590000bf0a70022
:100d900001f0a2004f06be004f05be004f04be008a
:100da0000080fa000000060025000700f9ff370068
:100db000270007006000b8000bd0a7000bc0a00000
:100dc0000be0a7000bc0a2000bc0a70001f8270092
:100dd000f0ff37000df8a300020032001e000700ec
:100de000190007000bf8a300eaff32000b30a70040
:100df00001f0a200e7ff37000df8a300f9ff3a0069
:100e0000f7ff37000801be000b000700e6ff3200c5
:100e100001003c000df0a2006000b8000df0a7003a
:100e200009000700dbff37000b000700f1ff270078
:100e3000f0ff2f00d7ff37000100070077fe3700d3
:100e400001f823000000050001f82700000005005c
:100e500020022000010037001002200030458800e9
:100e600000000600889fbe008a9fbe00300442003a
:100e7000b0844a0030054b0090854b006000b10003
:100e80000898be000a90be000440e10005c8e100d9
:100e900006d0e10007d8e100020031006800400000
:100ea0001008e8004f05be004f04be000000060019
:100eb000889fbe008a9fbe003004be002005be0091
:100ec0000418540005985c0006185d0007985d0042
:100ed000110020000440e10005c8e10006d0e10057
:100ee00007d8e100010039008000eb0010881000f5
:100ef0004f05be004f04be00000006001200fa00bd
:100f0000889fbe008a9fbe008c9fbe00e0b79f00f6
:100f1000f1b79f0082bf9f0093bf9f000605be00f0
:100f20000404be000000eb00d0b79f00c0b79f00d4
:100f3000b0b79f00a0b79f0090b79f000006eb00de
:100f40005fb19700cfb09700820141003fb097009a
:100f50000200e00004003d00370007007e805700db
:100f6000c0ff070003003700330007007e805700f2
:100f7000cfff0700dfb697000d00e0000c00350042
:100f80006fb29700ffb297000fbb97009fbb97000f
:100f900010002000010020006011b8000002720063
:100fa0008182720002037300838373001b000700b9
:100fb0000c06e80001042000810f5600e0ff3a0013
:100fc0000d00e00004003d000802be000a03be0060
:100fd0007e805700a3ff07005fa897000000e00095
:100fe00005003a001fb29700afb297003fb39700d9
:100ff000cfb39700090007006fb09700ffb09700cc
:101000000fb997009fb997004f06be004f05be006d
:101010004f04be000080fa00000006000100070037
:1010200000000600a4b79f00b5b79f00c6b79f0099
:10103000d7b79f00000006004f09de0082817100d3
:10104000b3b79f004f01de008180400082807000b6
:10105000a1b79f008fb097004f09de00000040004d
:101060000200700090b79f007fa897004f01de003c
:10107000818040008280700081b79f000d000700d2
:101080004f3ade000000400004007000f0af9f0007
:10109000080007000402420085824a0006034b0054
:1010a00087834b00dfff07000802be000a03be0073
:1010b000000006002fb29700bfb297004fb3970011
:1010c000dfb3970000000600881f7800180020009a
:1010d000881f780089ff07008f87e9004f04780098
:1010e00000000600801feb0084ff07008f87e900e7
:1010f00000000600889fbe008a9fbe00e00f5000df
:10110000e08f5800e00f5900e08f59000c003d00bf
:101110006044b8006055b8000000540081805c0055
:1011200002015d0083815d001800200015000700aa
:1011300008003d00180007000004eb000500370020
:101140000004eb000f00070002003d001200070042
:1011500018002000dcff07000800e0000600320055
:101160006022b8006033b8000000520081805a004d
:1011700002015b0083815b004f05be004f04be008f
:1011800000000600e00f5200e08f5a00e00f5b0005
:10119000e08f5b00000006006044b8006055b800b6
:1011a0000402540085825c0006035d0087835d00b5
:1011b00000000600889fbe008a9fbe008c1f78003a
:1011c000e00f5000e08f5800e00f5900e08f590009
:1011d0000d003d006044b8006055b80000005400a8
:1011e00081805c0002015d0083815d001c002000a5
:1011f0000820e10009a8e1000ab0e1000bb8e10015
:101200000d003d00080037000006eb00e00f520023
:10121000e08f5a00e00f5b00e08f5b0006003d00ae
:101220006044b8006055b8000402540085825c0038
:1012300006035d0087835d00aaff07000c00e00045
:10124000060032006022b8006033b800000052008f
:1012500081805a0002015b0083815b004f067800a9
:101260004f05be004f04be0000000600889fbe0070
:101270008a9fbe008c1f78000006eb00e00f500034
:10128000e08f5800e00f5900e08f590007003d0043
:101290006044b8006055b8000000540081805c00d4
:1012a00002015d0083815d001c002000e00f520000
:1012b000e08f5a00e00f5b00e08f5b0007003d000d
:1012c0006044b8006055b8000402540085825c0098
:1012d00006035d0087835d000c00a2007701070014
:1012e0000c00e000060032006022b8006033b80055
:1012f0000000520081805a0002015b0083815b0084
:101300004f0678004f05be004f04be0000000600e7
:101310000003be008ffd07006220e10002003200e2
:101320000600be0005000500e507b100f107b200a8
:1013300004f023008480700007f0a70001f0a000f3
:1013400024000500889fbe008a9fbe008c9fbe00bf
:101350000004be007ffd07000800be006420e1001d
:1013600048003e005500320072212700132b240054
:101370009800070047003c000800be00c2ec2800af
:10138000e32c2c0025fd0700470035000800be00b7
:1013900001f0a10002002000033823001ffd070018
:1013a000430035000800be00b2a32a0083fb2300df
:1013b00095fd07000200200003f0230001f0a700c4
:1013c00003f0a00076fc070016fd07000005be0034
:1013d00035fd070001f0a2000006be000200280053
:1013e00013f3230088fd07000801be006cfc070012
:1013f000809fbe000c00be0032082800e3952b0041
:1014000081fd07004f01be0065fc07000006be001d
:101410000001be007cfd0700809fbe004241250008
:1014200083b8230078fd07000200200003e82300b2
:101430005bfc07000c01be0073fd07000006be0048
:101440004f00be00f2f92b00c3d423006efd07004d
:101450000200200003f0230051fc07000c01be0035
:101460004efc07000001be000c00be00a9fc0700f6
:101470000200200003f0230049fc07006101450041
:10148000950007004f06be004f05be004f04be008a
:101490000000060001f827000000200022022000c2
:1014a00032458800f7ff37006000b800fbff3700c7
:1014b00001f8230000002000f2ff370009f8a30024
:1014c000f0ff32006000b800eeff3700889fbe00da
:1014d0008a9fbe000003be001efd07008505780040
:1014e00082815200020020006220e10004003a00e4
:1014f000f307b100040035007718e100040035005f
:101500000600be00140037006000b8000f0037006e
:10151000f50f2000faff2f008502d1000a85d300c5
:101520008301e900fcff3b00818462000004650048
:10153000890f7400f2ff32008582ea000a85ea0012
:101540008184620000046500dcfc070007f0a7004e
:1015500001f0a0000081eb000200e0004f05be009a
:101560004f04be0000000600889fbe008a9fbe0098
:10157000841f78000cfd07004f0078001100330035
:10158000f0ff2f00838f6c0006003b000405650010
:101590000a00a7000800370009f0a600100020008c
:1015a00008003700820f5400838f5c00030039006d
:1015b0001000200001003e000000200009f0a700fc
:1015c0000000ea004f05be004f04be000000e0002e
:1015d00000000600f4ff2f00e3ff3700881f7800ab
:1015e000030478000300e00007003d0060001000e5
:1015f000e080180060011900e081190002003b0042
:1016000001f02d00030037000400070008f0a700d8
:1016100001f0a0004f04780000000600889fbe0083
:101620008a9fbe0000827000040271000482710073
:10163000260032000004be000200be006011b800a7
:101640006b092000950220000182cf000a003900ba
:101650000541b1000082cf00070039000541b1000b
:101660000982cf00040039000541b1000882cf0093
:10167000010039000541b10005425200120032005c
:101680000a003b0082817100610164008100d10089
:101690000080d3008984d3000884d3008b05e80040
:1016a0000442e800f7ff3a0007003700080444004e
:1016b00089844c0000004800818048008b05e900c7
:1016c0000442e900f9ff3a007cfc07004f05be0028
:1016d0004f04be00000006000003be009dfc070092
:1016e0006220e100020032000600be000000060099
:1016f00085024100e30f20000328e10005003c00c3
:10170000a3fe2f000328e10007003d000500200094
:1017100001003700f50f200020022000304588002e
:101720006000b800080037001300200083815200d9
:1017300005003d008100d1000080d3008301e80056
:10174000fcff3a0005002000c72add00f107b200c7
:101750008580700007f0a70001f0a00000000600df
:10176000889fbe008a9fbe008c9fbe00e8fe0700d7
:10177000850478000005be006420e10049003e00b9
:101780006220e10003003200090035000bf8a300dd
:10179000440032000bf8a3000800320010022000c1
:1017a00030458800f0ff2f00f1ff27003d00370093
:1017b00001f82f00000020003a0037003d0007002c
:1017c00076fb07000006be000a00be00324f200074
:1017d00053f323007fff0700060034000c00be0017
:1017e000340007006dfb07000006be000a00be00c3
:1017f000020037008904e9000c00be002d0007003c
:1018000081fc07002b00070065fb07000001be00fc
:101810000c00be00bffb07000005be000001be00bb
:1018200079fc07000006be00a2f32300430d2c0044
:101830005bfb0700809fbe000c00be00d2e32700c8
:10184000d3f02b0070fc07004f01be00b1fb070076
:101850000006be000a01be006bfc07000a01be00c4
:101860004ffb07000006be006148b9000efc0700f0
:101870000005be0032082800e3952b0062fc07003b
:101880000c01be0046fb07000006be000a00be00b9
:101890000200280013f323005bfc07000c01be00cc
:1018a0003ffb07004f06be004f05be004f04be00c1
:1018b0000000060003f0230002000500889fbe0020
:1018c0008a9fbe008c9fbe000404b8000506b800c5
:1018d0008904460060854e000606b8000a054600e9
:1018e000e0854e000706b8008b054600040eb800e0
:1018f000890446000a854e00e0854d00050eb800bb
:101900000a0546008b854e00060eb8008b05460082
:101910000416b8000a0546008b854e000516b8006f
:101920008b054600041eb8008b0546000800be006b
:101930000a01be004f06be004f05be004f04be00a8
:101940000000060000017800820178003204e00007
:10195000fdff3a0003017800b14178000359780097
:0c1960000304e000fcff3a000000060059
:020000040000fa
:10196c005445000053540000312000003a20000080
:10197c000a0d0000005400004553000054320000d2
:10198c00203a0000200a00000d0000005445000021
:10199c0053540000332000003a2000000a0d0000d0
:1019ac00005400004553000054340000203a00005d
:1019bc00200a00000d000000565f000042410000ac
:1019cc00545400003d0000000a0d000000440000cb
:1019dc00203d000000540000455300005435000029
:1019ec00203a0000200a00000d0000002d0000002d
:1019fc0000000000000000000000000000000000db
:101a0c0000000000000000000000000000000000ca
:041a1c0000000000c6
:020000040000fa
:101a20000000fa00889fbe009b010700ab01070081
:101a3000f1020700b7020700c601070022003700c5
:101a4000a5c8bf000004e0000d0032009680a90088
:101a50009400a9005668ef005768ef00a568ef00f2
:101a60005868ef005968ef005a68ef0060cb280013
:101a7000c501070000e82300010020001105070050
:101a8000d502a900d522a900cd42a900cd62a900a6
:101a9000cd82a900cda2a90000202100a10720002d
:101aa00008050700d502a800d522a800cd42a8004d
:101ab000cd62a800cd82a800cda2a8000020210000
:101ac000a1072000ff04070051168000000220003b
:101ad000008060000000e0000a0032001116800063
:101ae00000802000008060000000e000050032005f
:101af0001116800000102000008060000000e0004f
:101b0000cfff3a0010c0b300a5e8b700330037009c
:101b1000a5c8bf000004e0000d0032009680a900b7
:101b20009400a9005668ef005768ef00a568ef0021
:101b30005868ef005968ef005a68ef0010cc280091
:101b40009101070000e8230001002000dd040700e8
:101b50005116800000042000008060000000e000ba
:101b600007003a00d502a800d522a800cd42a8005f
:101b7000cd62a800cd82a800cda2a8001700370032
:101b80005116800000102000008060000000e0007e
:101b900007003a00d502a900d522a800cd42a8002e
:101ba000cd62a800cd82a800cda2a8000b0037000e
:101bb0005116800000202000008060000000e0003e
:101bc00006003a00d502a900d522a900cd42a800fe
:101bd000cd62a800cd82a800cda2a8005116800039
:101be00000022000008060000000e0000a003200d7
:101bf0001116800000802000008060000000e000de
:101c000005003200111680000010200000806000e6
:101c10000000e000beff320010c0b300a5e8b7002e
:101c200013003700a5c8bf000004e0001000320018
:101c30009680a9009400a9005668ef0010c0b30078
:101c400057e8b7005868ef005968ef005a68ef008e
:101c5000c0cc28004c01070000e823000100200050
:101c6000980407009680a8009400a800a568ef00db
:101c70005116800000022000008060000000e0009b
:101c80000a003200111680000080200000806000f1
:101c90000000e00005003a0011168000001020004e
:101ca000008060000000e000deff320010c0b300e2
:101cb000a5e8b70086003700cda2a900a5c8bf00df
:101cc0000004e000120032009680a9009400a900f0
:101cd0005768ef00a568ef005668ef0010c0b3002a
:101ce00058e8b7005968ef005a68ef00d482a9009d
:101cf00070cd28002401070000e823000100200027
:101d0000700407009680a8009400a8005428ef00f3
:101d10009680a8009400a800304380004100200075
:101d2000e7030700304188004141880030418000ce
:101d30004141800002002000030a240075fa0700d8
:101d40000004be00b4438000c5438000904380007f
:101d5000a14380000001be000400be000ffa07008e
:101d60000001be000800be0027fb07000002be0005
:101d700090438000a14380000001be000400be002b
:101d800007fa0700f041880001428800f041800016
:101d90000142800002002000433324005dfa070066
:101da00002002400c361240017fb07009dfa07000e
:101db00000007800f0438800a0428000f90f500036
:101dc00043003600e042800041002000bc030700d1
:101dd0005041880061418800544180006541800085
:101de000d0438000e14380000001be000400be003b
:101df00005fb070050418800614188004043800096
:101e000041002000ae03070090418800a1418800f6
:101e1000f042800041002000a903070070418800c3
:101e2000814188007441800085418000904180009c
:101e3000a14180000001be000400be00d7f90700e8
:101e4000d2cc2c00c3cc230032fa070070418800aa
:101e50008141880020ce2800cb000700000520002b
:101e600001002000170407005041800061418000fc
:101e70004300200002802000d9000700a0ce2800e7
:101e8000c100070000052000010020000d0407002c
:101e9000d0ce2800bc000700000520000100200073
:101ea00008040700f0418000014280004300200048
:101eb00002802000ca000700a0ce2800b200070060
:101ec0000005200001002000fe0307005428ef0059
:101ed0005116800000022000008060000000e00039
:101ee0000a0032001116800000802000008060008f
:101ef0000000e00005003a001116800000102000ec
:101f0000008060000000e0006bff3a0010c0b300ea
:101f1000a5e8b7004d003700a5c8bf000004e000e9
:101f2000270032009680a9009400a9005668ef00af
:101f30005768ef00a568ef005868ef0010c0b300c5
:101f400059e8b7005a68ef0010cf28008e0007004c
:101f50001428ef0015003700d502a900d522a900ea
:101f6000cd42a900cd62a900cd82a900cda2a900d1
:101f700000202100a1072000d2030700d502a800fd
:101f8000d522a800cd42a800cd62a800cd82a8002d
:101f9000cda2a80000202100a1072000c90307004e
:101fa000a04080000000e800a0408800a040800021
:101fb000e90f5000e8ff3600380107005428ef0011
:101fc0009680a8009400a800a0428000f90f50005d
:101fd0001e003600e0428000410020003803070068
:101fe0005041880061418800544180006541800073
:101ff000d0438000e14380000001be000400be0029
:1020000081fa0700504188006141880020ce2800f5
:102010005d0007000005200001002000a903070063
:102020005041800061418000430020000280200078
:102030006b000700a0ce2800530007000005200019
:10204000010020009f0307005428ef005116800074
:1020500000022000008060000000e0000a003a005a
:102060001116800000802000008060000000e00069
:1020700005003a001116800000102000008060006a
:102080000000e000a4ff3a0010c0b300a5e8b700cc
:10209000000000008cfe37000000fa00113a8000ba
:1020a000f0ff28000080600000c0a000103a880007
:1020b000113a8000f08f2f00008060000080a000a7
:1020c000103a8800213a8000f08f2f0000806000d5
:1020d000203a88000080fa00000006000000fa00a4
:1020e000c9a2a900d102a900d122a900d062a900e9
:1020f000c122a900c942a900c962a900c982a900d8
:10210000c142a900d082a900c8a2a800c162a8004b
:10211000c0e2a800c102a800c082a900c882a9002c
:10212000c8c2a800c902a800c922a800d462a90098
:10213000c522a900d482a900c482a800cc82a8002c
:10214000cd42a800cd62a800cd82a8000080fa0090
:10215000000006000000fa0021a2a9002062a900e8
:102160000111800090ff2f000080600000118800a6
:102170002002a900800020004011880021e2a80070
:102180000080fa00000006000200fa00000f78004c
:102190002342a8000b00370000000000111180004e
:1021a00000102000008060000000e000fbff320013
:1021b0001e007800104078000000fb00201188000d
:1021c0001e0fe8001e007800104078000004e000b8
:1021d000f1ff3a002342a9000080fa000000060047
:1021e0003000fa00881f78003017980041179800d7
:1021f00052179800631798000000eb00000f78005a
:102200000000eb00100798000000eb00200798008a
:10221000c0cf2800904078001157980010419000de
:1022200022579800f3014700110009008059eb0084
:102230003e109000ce1090003007980041079800a3
:1022400018c0b3006011b8003e109000ce1090008e
:1022500072f907000000e000010035000044eb00c7
:102260000804e000050032003e109000ce109000ff
:1022700001f0a20030179800411798003e1090001e
:10228000ce10900067f90700200798002e009000fc
:10229000cf80de0084f907000001be003e109000f0
:1022a000ce109000bdf80700301798004117980035
:1022b000ae009000a000200000017800110009008d
:1022c0008200d8008000fd000040780003c3b30006
:1022d000834040006a0047001e004000014878002b
:1022e0001e0fe800ae009000a00020000001780062
:1022f000110009008200d800200798002e009000ed
:102300000000e000eaff3c001e0fe9000b00370070
:102310001e009000de10900000804000ea004700a0
:102320009e80400091407800014878001e00900097
:102330000000e800100798001e0fe9001e0078005a
:102340000000e000f2ff3d001e009000de10900053
:1023500000804000e1c2b300014878006e10900098
:10236000cf80de0050f907000001be000000200011
:1023700001122400d8f907003e119000ce11900000
:10238000a1f9070027f90700200798009e01900097
:10239000030f78009e0090006e10900000804000b7
:1023a000100798001e0090000000e800de1090006a
:1023b000008040008040eb000148780016003700a4
:1023c0001e009000de109000808040007117980081
:1023d0002e019000a1002000810178001100090069
:1023e0000301d800814078000143b0007e109000c6
:1023f000014878001e0090000000e90010079800d6
:10240000ae009000a000200000017800110009003b
:102410008200d800200798001e0090009e0f5000f8
:10242000e7ff3c0018c0b3006011b8003e00900008
:10243000ce009000f9f807000000e0000100350030
:102440000044eb000804e0000b003200710047007c
:10245000de1090003bfd0700710047005017980008
:102460007100470048ff0700000520000100200020
:1024700094020700060037005e10900042ff07003c
:1024800000052000010020008e020700000000006f
:102490004f0478000080fa00000006000000fa00f7
:1024a00010c0b30056e8b7008032220060438800b5
:1024b0009680a8009400a8000000000061438000fe
:1024c00040d62000808f5000fcff3e005668ef0091
:1024d000604380008000eb00f6f807000200240053
:1024e000c36124008bf8070002002000433324005e
:1024f00045f9070050428800614288005042800040
:102500006142800070428800814288000080fa00a9
:10251000000006000000fa0041e3a8004143a800c3
:10252000011a8000f0cf2f0000806000001a8800a0
:10253000011a8000f0f02f0000806000001a88006f
:102540004043a900111a8000f0ff230000806000c2
:1025500000e0a000101a880043a3a900111a80000f
:1025600030f82f0000806000101a8800f0c3b3001c
:1025700044e3b700e244a800e264a800e284a900b2
:10258000e404a800e424a800e444a800e3e4a800cc
:10259000e044a800e064a8000080fa000000060003
:1025a0000400fa00100798009e009000411a88006d
:1025b0004023a8000000eb00000f78000100370066
:1025c0001e0fe800703e20009e007800808f5000b3
:1025d000fbff36004023a90000000000001a800025
:1025e000610060000000e000fcff32000018800085
:1025f0000080fa00000006000000fa00e3c4a90011
:102600008220a9008680a9007105800080ff2f002c
:10261000008060000000a000700588009680a9007e
:102620008200a9008400a9002105800080ff2f00fe
:10263000008060000000a000200588009400a90030
:102640000080fa00000006003600f800809fbe00ff
:10265000829fbe00849fbe00869fbe003400f800ab
:1026600000002000a00188000000fa009680a90068
:102670008680a90056c8bf000004e0002300320095
:10268000604380008000eb006011b800044022002d
:10269000450f20006033b800f4fa0700042424003a
:1026a000f50020006033b80087fa07000000be0084
:1026b00004020700d482a800d462a800c0448000ad
:1026c000d14480006011b80004402200450f200072
:1026d0006033b800e5fa070004242400f500200068
:1026e0006033b80078fa07000000be00f50107006b
:1026f000d462a900d482a900604380007c0050000d
:10270000604388009680a80096003700a0428000b1
:102710000000e800a042880057c8bf000004e000a5
:1027200016003200008d200021002000e501070086
:10273000d482a800d462a800c0448000d1448000a4
:102740006011b80004402200450f20006033b8003b
:10275000c6fa070004242400f50020006033b80006
:1027600059fa07000000be00d6010700d462a90094
:10277000d482a9009680a8007a00370058c8bf000c
:102780000004e00057003200f04380008000eb00be
:102790006011b80004402200450f20006033b800eb
:1027a000b2fa070004242400f50020006033b800ca
:1027b00045fa07000000be00c2010700f043800098
:1027c0006101b8000045800011458000800f510074
:1027d000818f5900300031005228ef00240037006b
:1027e000d482a800d462a800e0448000f1448000b4
:1027f0006011b80004402200450f20006033b8008b
:102800009afa070004242400f50020006033b80081
:102810002dfa07000000be00aa010700d462a9003b
:10282000d482a900e0448000f14480006011b80027
:1028300004402200450f20006033b8008bfa0700e7
:1028400004242400f50020006033b8001efa0700bd
:102850000000be009b010700e0448000f1448000be
:102860008000780090428000008040009042880004
:10287000004580001145800080007800f043800012
:102880008080500090428000808f5000d4ff3e0036
:102890009680a80033003700d482a800d462a80034
:1028a000c0448000d14480006011b8000440220080
:1028b000450f20006033b8006cfa070004242400a0
:1028c000f50020006033b800fff907000000be00eb
:1028d0007c010700d462a900d482a9009680a800d8
:1028e00020003700604380008000eb006011b800da
:1028f00004402200450f20006033b8005bfa070057
:1029000004242400f50020006033b800eef907002d
:102910000000be006b010700d482a800d462a800aa
:10292000c0448000d14480006011b80004402200ff
:10293000450f20006033b8004cfa0700042424003f
:10294000f50020006033b800dff907000000be008a
:102950005c010700d462a900d482a9009680a80077
:10296000000000000080fa003400f9004f03be00b0
:102970004f02be004f01be004f00be003600f900fe
:10298000004006003600f800809fbe00829fbe0017
:10299000849fbe00869fbe003400f8000000200027
:1029a000a00188000000fa009400a9008400a9009a
:1029b00056c8bf000004e0002300320060438000de
:1029c0008000eb006011b80004402200450f200099
:1029d0006033b80025fa070004242400f500200025
:1029e0006033b800b8f907000000be0035010700e9
:1029f000d482a800c522a800c0448000d144800031
:102a00006011b80004402200450f20006033b80078
:102a100016fa070004242400f50020006033b800f3
:102a2000a9f907000000be0026010700c522a90081
:102a3000d482a900604380007c005000604388007d
:102a40009400a80096003700a04280000000e80033
:102a5000a042880057c8bf000004e0001600320002
:102a6000008d20002100200016010700d482a8005c
:102a7000c522a800c0448000d14480006011b80085
:102a800004402200450f20006033b800f7f907002a
:102a900004242400f50020006033b8008af9070000
:102aa0000000be0007010700c522a900d482a900ca
:102ab0009400a8007a00370058c8bf000004e00066
:102ac00057003200f04380008000eb006011b80036
:102ad00004402200450f20006033b800e3f90700ee
:102ae00004242400f50020006033b80076f90700c4
:102af0000000be00f3000700f04380006101b80051
:102b00000045800011458000800f5100818f5900e1
:102b1000300031005228ef0024003700d482a80092
:102b2000c522a800e0448000f14480006011b80094
:102b300004402200450f20006033b800cbf90700a5
:102b400004242400f50020006033b8005ef907007b
:102b50000000be00db000700c522a900d482a90046
:102b6000e0448000f14480006011b800044022007d
:102b7000450f20006033b800bcf90700042424008e
:102b8000f50020006033b8004ff907000000be00d8
:102b9000cc000700e0448000f14480008000780011
:102ba00090428000008040009042880000458000f4
:102bb0001145800080007800f04380008080500044
:102bc00090428000808f5000d4ff3e009400a80007
:102bd00033003700d482a800c522a800c04480007a
:102be000d14480006011b80004402200450f20004d
:102bf0006033b8009df9070004242400f50020008c
:102c00006033b80030f907000000be00ad000700d7
:102c1000c522a900d482a9009400a8002000370092
:102c2000604380008000eb006011b8000440220087
:102c3000450f20006033b8008cf9070004242400fd
:102c4000f50020006033b8001ff907000000be0047
:102c50009c000700d482a800c522a800c0448000c0
:102c6000d14480006011b80004402200450f2000cc
:102c70006033b8007df9070004242400f50020002b
:102c80006033b80010f907000000be008d00070097
:102c9000c522a900d482a9009400a8000000000069
:102ca0000080fa003400f9004f03be004f02be005e
:102cb0004f01be004f00be003600f9000040060084
:102cc0000a00fa00889fbe0030079800410798006c
:102cd0006000b800104188002141880010002000e9
:102ce000a0408800180037003e0090002cfe07002e
:102cf000000f78001e0078008000eb00edf6070062
:102d000002002f00f357240082f6070012832000f0
:102d1000030a24003cf707001007980021079800d9
:102d200010418000214180001e019000ae01900002
:102d30001bf607001041880021418800a040800058
:102d40000000e800a0408800a14080004e009000f4
:102d5000808f5000e4ff3600184180002941800038
:102d60004e0090008000eb00d2f607000001be008c
:102d70000800be0067f607004f04be000080fa009e
:102d8000000006000c00fa002007980031079800a8
:102d900042079800530798002e019000be01900052
:102da0000000200001022400fcf50700008fbe0097
:102db0006011b8001e00be0098f607000000e00099
:102dc00002003a006000b8000b0037004e0090008f
:102dd000de00900001f0a200d2cc2c00c3d423006e
:102de00009f707001e01be0007f7070002002000d8
:102df0000302240047f607000080fa0000000600e6
:102e00000400fa00008fbe000200200043332400bb
:102e10001e00be003ff6070002002400c36124002c
:102e2000f9f607007ff6070000007800604388008d
:082e30000080fa00000006001a
:020000040000fa
:102e38005c0800004a0000000200000004000500d1
:102e48000006000007000900000800000d000e0041
:102e580000282300000080003f000000a0419a00e5
:102e680099ed42009a4804004270170000000000e3
:102e78003f000000f2420000004040000000a000b7
:102e880041000000e742000040014300f401000057
:102e9800001400000000df0017000000010100001e
:102ea800000800005c00000000000000a608000008
:0c2eb8000200000000000000000000000c
:020000040000fa
:102ec400f03fb1000180b10006003500ee030900b7
:102ed40000000000403fb1000180b100fbff3d0055
:102ee4001000b000203fb00002003500008009004f
:082ef4000000000000000600d0
:020000040000fa
:0200000401f009
:04000c00f9ff0000f8
:020000040000fa
:0200000401f009
:04001000ffff0000ee
:020000040000fa
:0200000401f009
:040014005fff00008a
:020000040000fa
:0200000401f009
:04001c00ffff0000e2
:00000001FF
